:100000000EC015C014C013C012C011C010C00FC064
:100010000EC00DC00CC00BC00AC009C008C011241E
:100020001FBECFE5D2E0DEBFCDBF02D035C0E8CFE6
:10003000BA9A81E88ABD80E189BD82E083BF30E160
:1000400020E390E580EA4FEF53ED60E341505040EC
:100050006040E1F700C0000039BD4FEF53ED60E3B1
:10006000415050406040E1F700C0000029BD4FEF13
:1000700053ED60E3415050406040E1F700C00000A4
:1000800099BD4FEF53ED60E3415050406040E1F7C0
:0C00900000C0000089BDD7CFF894FFCF5E
:00000001FF
